{
  "_format": "hh-sol-artifact-1",
  "contractName": "addressBook",
  "sourceName": "contracts/AddressBook.sol",
  "abi": [
    {
      "inputs": [
        {
          "internalType": "address",
          "name": "contactAddress",
          "type": "address"
        },
        {
          "internalType": "string",
          "name": "aliasName",
          "type": "string"
        }
      ],
      "name": "addContact",
      "outputs": [],
      "stateMutability": "nonpayable",
      "type": "function"
    },
    {
      "inputs": [
        {
          "internalType": "address",
          "name": "contactAddress",
          "type": "address"
        }
      ],
      "name": "getAlias",
      "outputs": [
        {
          "internalType": "string",
          "name": "",
          "type": "string"
        }
      ],
      "stateMutability": "view",
      "type": "function"
    },
    {
      "inputs": [],
      "name": "getContact",
      "outputs": [
        {
          "internalType": "address[]",
          "name": "",
          "type": "address[]"
        }
      ],
      "stateMutability": "view",
      "type": "function"
    },
    {
      "inputs": [
        {
          "internalType": "address",
          "name": "contactAddress",
          "type": "address"
        }
      ],
      "name": "removeContacts",
      "outputs": [],
      "stateMutability": "nonpayable",
      "type": "function"
    }
  ],
  "bytecode": "0x608060405234801561001057600080fd5b50611051806100206000396000f3fe608060405234801561001057600080fd5b506004361061004c5760003560e01c80631db10fba1461005157806399900d111461006f578063c44481641461009f578063fefb34d0146100bb575b600080fd5b6100596100d7565b6040516100669190610958565b60405180910390f35b610089600480360381019061008491906109ba565b6101a1565b6040516100969190610a77565b60405180910390f35b6100b960048036038101906100b49190610bce565b6102af565b005b6100d560048036038101906100d091906109ba565b6103dc565b005b60606000803373ffffffffffffffffffffffffffffffffffffffff1673ffffffffffffffffffffffffffffffffffffffff16815260200190815260200160002080548060200260200160405190810160405280929190818152602001828054801561019757602002820191906000526020600020905b8160009054906101000a900473ffffffffffffffffffffffffffffffffffffffff1673ffffffffffffffffffffffffffffffffffffffff168152602001906001019080831161014d575b5050505050905090565b6060600160003373ffffffffffffffffffffffffffffffffffffffff1673ffffffffffffffffffffffffffffffffffffffff16815260200190815260200160002060008373ffffffffffffffffffffffffffffffffffffffff1673ffffffffffffffffffffffffffffffffffffffff168152602001908152602001600020805461022a90610c59565b80601f016020809104026020016040519081016040528092919081815260200182805461025690610c59565b80156102a35780601f10610278576101008083540402835291602001916102a3565b820191906000526020600020905b81548152906001019060200180831161028657829003601f168201915b50505050509050919050565b6000803373ffffffffffffffffffffffffffffffffffffffff1673ffffffffffffffffffffffffffffffffffffffff168152602001908152602001600020829080600181540180825580915050600190039060005260206000200160009091909190916101000a81548173ffffffffffffffffffffffffffffffffffffffff021916908373ffffffffffffffffffffffffffffffffffffffff16021790555080600160003373ffffffffffffffffffffffffffffffffffffffff1673ffffffffffffffffffffffffffffffffffffffff16815260200190815260200160002060008473ffffffffffffffffffffffffffffffffffffffff1673ffffffffffffffffffffffffffffffffffffffff16815260200190815260200160002090816103d79190610e40565b505050565b60008060003373ffffffffffffffffffffffffffffffffffffffff1673ffffffffffffffffffffffffffffffffffffffff16815260200190815260200160002080549050905060005b81811015610806576000803373ffffffffffffffffffffffffffffffffffffffff1673ffffffffffffffffffffffffffffffffffffffff168152602001908152602001600020818154811061047d5761047c610f12565b5b9060005260206000200160009054906101000a900473ffffffffffffffffffffffffffffffffffffffff1673ffffffffffffffffffffffffffffffffffffffff168373ffffffffffffffffffffffffffffffffffffffff16036107f35760016000803373ffffffffffffffffffffffffffffffffffffffff1673ffffffffffffffffffffffffffffffffffffffff1681526020019081526020016000208054905011801561053657506001826105339190610f70565b81105b1561065b576000803373ffffffffffffffffffffffffffffffffffffffff1673ffffffffffffffffffffffffffffffffffffffff1681526020019081526020016000206001836105869190610f70565b8154811061059757610596610f12565b5b9060005260206000200160009054906101000a900473ffffffffffffffffffffffffffffffffffffffff166000803373ffffffffffffffffffffffffffffffffffffffff1673ffffffffffffffffffffffffffffffffffffffff168152602001908152602001600020828154811061061257610611610f12565b5b9060005260206000200160006101000a81548173ffffffffffffffffffffffffffffffffffffffff021916908373ffffffffffffffffffffffffffffffffffffffff1602179055505b6000803373ffffffffffffffffffffffffffffffffffffffff1673ffffffffffffffffffffffffffffffffffffffff16815260200190815260200160002081836106a59190610f70565b815481106106b6576106b5610f12565b5b9060005260206000200160006101000a81549073ffffffffffffffffffffffffffffffffffffffff02191690556000803373ffffffffffffffffffffffffffffffffffffffff1673ffffffffffffffffffffffffffffffffffffffff16815260200190815260200160002080548061073157610730610fa4565b5b6001900381819060005260206000200160006101000a81549073ffffffffffffffffffffffffffffffffffffffff02191690559055600160003373ffffffffffffffffffffffffffffffffffffffff1673ffffffffffffffffffffffffffffffffffffffff16815260200190815260200160002060008473ffffffffffffffffffffffffffffffffffffffff1673ffffffffffffffffffffffffffffffffffffffff16815260200190815260200160002060006107ee919061080b565b610806565b80806107fe90610fd3565b915050610425565b505050565b50805461081790610c59565b6000825580601f106108295750610848565b601f016020900490600052602060002090810190610847919061084b565b5b50565b5b8082111561086457600081600090555060010161084c565b5090565b600081519050919050565b600082825260208201905092915050565b6000819050602082019050919050565b600073ffffffffffffffffffffffffffffffffffffffff82169050919050565b60006108bf82610894565b9050919050565b6108cf816108b4565b82525050565b60006108e183836108c6565b60208301905092915050565b6000602082019050919050565b600061090582610868565b61090f8185610873565b935061091a83610884565b8060005b8381101561094b57815161093288826108d5565b975061093d836108ed565b92505060018101905061091e565b5085935050505092915050565b6000602082019050818103600083015261097281846108fa565b905092915050565b6000604051905090565b600080fd5b600080fd5b610997816108b4565b81146109a257600080fd5b50565b6000813590506109b48161098e565b92915050565b6000602082840312156109d0576109cf610984565b5b60006109de848285016109a5565b91505092915050565b600081519050919050565b600082825260208201905092915050565b60005b83811015610a21578082015181840152602081019050610a06565b60008484015250505050565b6000601f19601f8301169050919050565b6000610a49826109e7565b610a5381856109f2565b9350610a63818560208601610a03565b610a6c81610a2d565b840191505092915050565b60006020820190508181036000830152610a918184610a3e565b905092915050565b600080fd5b600080fd5b7f4e487b7100000000000000000000000000000000000000000000000000000000600052604160045260246000fd5b610adb82610a2d565b810181811067ffffffffffffffff82111715610afa57610af9610aa3565b5b80604052505050565b6000610b0d61097a565b9050610b198282610ad2565b919050565b600067ffffffffffffffff821115610b3957610b38610aa3565b5b610b4282610a2d565b9050602081019050919050565b82818337600083830152505050565b6000610b71610b6c84610b1e565b610b03565b905082815260208101848484011115610b8d57610b8c610a9e565b5b610b98848285610b4f565b509392505050565b600082601f830112610bb557610bb4610a99565b5b8135610bc5848260208601610b5e565b91505092915050565b60008060408385031215610be557610be4610984565b5b6000610bf3858286016109a5565b925050602083013567ffffffffffffffff811115610c1457610c13610989565b5b610c2085828601610ba0565b9150509250929050565b7f4e487b7100000000000000000000000000000000000000000000000000000000600052602260045260246000fd5b60006002820490506001821680610c7157607f821691505b602082108103610c8457610c83610c2a565b5b50919050565b60008190508160005260206000209050919050565b60006020601f8301049050919050565b600082821b905092915050565b600060088302610cec7fffffffffffffffffffffffffffffffffffffffffffffffffffffffffffffffff82610caf565b610cf68683610caf565b95508019841693508086168417925050509392505050565b6000819050919050565b6000819050919050565b6000610d3d610d38610d3384610d0e565b610d18565b610d0e565b9050919050565b6000819050919050565b610d5783610d22565b610d6b610d6382610d44565b848454610cbc565b825550505050565b600090565b610d80610d73565b610d8b818484610d4e565b505050565b5b81811015610daf57610da4600082610d78565b600181019050610d91565b5050565b601f821115610df457610dc581610c8a565b610dce84610c9f565b81016020851015610ddd578190505b610df1610de985610c9f565b830182610d90565b50505b505050565b600082821c905092915050565b6000610e1760001984600802610df9565b1980831691505092915050565b6000610e308383610e06565b9150826002028217905092915050565b610e49826109e7565b67ffffffffffffffff811115610e6257610e61610aa3565b5b610e6c8254610c59565b610e77828285610db3565b600060209050601f831160018114610eaa5760008415610e98578287015190505b610ea28582610e24565b865550610f0a565b601f198416610eb886610c8a565b60005b82811015610ee057848901518255600182019150602085019450602081019050610ebb565b86831015610efd5784890151610ef9601f891682610e06565b8355505b6001600288020188555050505b505050505050565b7f4e487b7100000000000000000000000000000000000000000000000000000000600052603260045260246000fd5b7f4e487b7100000000000000000000000000000000000000000000000000000000600052601160045260246000fd5b6000610f7b82610d0e565b9150610f8683610d0e565b9250828203905081811115610f9e57610f9d610f41565b5b92915050565b7f4e487b7100000000000000000000000000000000000000000000000000000000600052603160045260246000fd5b6000610fde82610d0e565b91507fffffffffffffffffffffffffffffffffffffffffffffffffffffffffffffffff82036110105761100f610f41565b5b60018201905091905056fea2646970667358221220de51c41ab69be560bc2498ed6f2be5c69aecf6203cd1ddda42dea64f557ac68e64736f6c63430008120033",
  "linkReferences": {},
  "deployedLinkReferences": {}
}